{"abi":[{"type":"receive","stateMutability":"payable"},{"type":"function","name":"execute","inputs":[{"name":"target","type":"address","internalType":"address"},{"name":"value","type":"uint256","internalType":"uint256"},{"name":"data","type":"bytes","internalType":"bytes"},{"name":"signature","type":"bytes","internalType":"bytes"}],"outputs":[],"stateMutability":"nonpayable"},{"type":"function","name":"initialize","inputs":[{"name":"_owner","type":"address","internalType":"address"},{"name":"_nftContractAddress","type":"address","internalType":"address"}],"outputs":[],"stateMutability":"nonpayable"},{"type":"function","name":"mintNFT","inputs":[],"outputs":[],"stateMutability":"payable"},{"type":"function","name":"nftContract","inputs":[],"outputs":[{"name":"","type":"address","internalType":"contract IMyToken"}],"stateMutability":"view"},{"type":"function","name":"owner","inputs":[],"outputs":[{"name":"","type":"address","internalType":"address"}],"stateMutability":"view"},{"type":"function","name":"withdraw","inputs":[],"outputs":[],"stateMutability":"nonpayable"},{"type":"error","name":"ECDSAInvalidSignature","inputs":[]},{"type":"error","name":"ECDSAInvalidSignatureLength","inputs":[{"name":"length","type":"uint256","internalType":"uint256"}]},{"type":"error","name":"ECDSAInvalidSignatureS","inputs":[{"name":"s","type":"bytes32","internalType":"bytes32"}]}],"bytecode":{"object":"0x6080604052348015600f57600080fd5b50610a358061001f6000396000f3fe6080604052600436106100595760003560e01c806314f710fe146100655780633ccfd60b1461006f578063485cc955146100845780638da5cb5b146100a4578063d56d229d146100e0578063da0980c71461010057600080fd5b3661006057005b600080fd5b61006d610120565b005b34801561007b57600080fd5b5061006d61032c565b34801561009057600080fd5b5061006d61009f3660046107df565b6103b4565b3480156100b057600080fd5b506000546100c4906001600160a01b031681565b6040516001600160a01b03909116815260200160405180910390f35b3480156100ec57600080fd5b506001546100c4906001600160a01b031681565b34801561010c57600080fd5b5061006d61011b3660046108b7565b610431565b6000546001600160a01b031633146101705760405162461bcd60e51b815260206004820152600e60248201526d139bdd08185d5d1a1bdc9a5e995960921b60448201526064015b60405180910390fd5b6001546040805163501ad8ff60e11b815290516000926001600160a01b03169163a035b1fe9160048083019260209291908290030181865afa1580156101ba573d6000803e3d6000fd5b505050506040513d601f19601f820116820180604052508101906101de9190610972565b9050803410156102275760405162461bcd60e51b8152602060048201526014602482015273125b9cdd59999a58da595b9d081c185e5b595b9d60621b6044820152606401610167565b344710156102775760405162461bcd60e51b815260206004820152601d60248201527f496e73756666696369656e7420636f6e74726163742062616c616e63650000006044820152606401610167565b6001546040516335313c2160e11b81523060048201526000916001600160a01b031690636a62784290349060240160206040518083038185885af11580156102c3573d6000803e3d6000fd5b50505050506040513d601f19601f820116820180604052508101906102e89190610972565b9050806000036103285760405162461bcd60e51b815260206004820152600b60248201526a135a5b9d0819985a5b195960aa1b6044820152606401610167565b5050565b6000546001600160a01b031633146103775760405162461bcd60e51b815260206004820152600e60248201526d139bdd08185d5d1a1bdc9a5e995960921b6044820152606401610167565b600080546040516001600160a01b03909116914780156108fc02929091818181858888f193505050501580156103b1573d6000803e3d6000fd5b50565b6000546001600160a01b0316156104035760405162461bcd60e51b8152602060048201526013602482015272105b1c9958591e481a5b9a5d1a585b1a5e9959606a1b6044820152606401610167565b600080546001600160a01b039384166001600160a01b03199182161790915560018054929093169116179055565b61043e858585858561052b565b61047e5760405162461bcd60e51b8152602060048201526011602482015270496e76616c6964207369676e617475726560781b6044820152606401610167565b6000856001600160a01b031685858560405161049b92919061098b565b60006040518083038185875af1925050503d80600081146104d8576040519150601f19603f3d011682016040523d82523d6000602084013e6104dd565b606091505b50509050806105235760405162461bcd60e51b8152602060048201526012602482015271151c985b9cd858dd1a5bdb8819985a5b195960721b6044820152606401610167565b505050505050565b600080868686863060405160200161054795949392919061099b565b6040516020818303038152906040528051906020012090506000610598827f19457468657265756d205369676e6564204d6573736167653a0a3332000000006000908152601c91909152603c902090565b905060006105a682866105c4565b6000546001600160a01b039081169116149998505050505050505050565b6000806000806105d486866105ee565b9250925092506105e4828261063b565b5090949350505050565b600080600083516041036106285760208401516040850151606086015160001a61061a888285856106f4565b955095509550505050610634565b50508151600091506002905b9250925092565b600082600381111561064f5761064f6109e9565b03610658575050565b600182600381111561066c5761066c6109e9565b0361068a5760405163f645eedf60e01b815260040160405180910390fd5b600282600381111561069e5761069e6109e9565b036106bf5760405163fce698f760e01b815260048101829052602401610167565b60038260038111156106d3576106d36109e9565b03610328576040516335e2f38360e21b815260048101829052602401610167565b600080807f7fffffffffffffffffffffffffffffff5d576e7357a4501ddfe92f46681b20a084111561072f57506000915060039050826107b9565b604080516000808252602082018084528a905260ff891692820192909252606081018790526080810186905260019060a0016020604051602081039080840390855afa158015610783573d6000803e3d6000fd5b5050604051601f1901519150506001600160a01b0381166107af575060009250600191508290506107b9565b9250600091508190505b9450945094915050565b80356001600160a01b03811681146107da57600080fd5b919050565b600080604083850312156107f257600080fd5b6107fb836107c3565b9150610809602084016107c3565b90509250929050565b634e487b7160e01b600052604160045260246000fd5b600082601f83011261083957600080fd5b813567ffffffffffffffff81111561085357610853610812565b604051601f8201601f19908116603f0116810167ffffffffffffffff8111828210171561088257610882610812565b60405281815283820160200185101561089a57600080fd5b816020850160208301376000918101602001919091529392505050565b6000806000806000608086880312156108cf57600080fd5b6108d8866107c3565b945060208601359350604086013567ffffffffffffffff8111156108fb57600080fd5b8601601f8101881361090c57600080fd5b803567ffffffffffffffff81111561092357600080fd5b88602082840101111561093557600080fd5b60209190910193509150606086013567ffffffffffffffff81111561095957600080fd5b61096588828901610828565b9150509295509295909350565b60006020828403121561098457600080fd5b5051919050565b8183823760009101908152919050565b6bffffffffffffffffffffffff198660601b1681528460148201528284603483013760609190911b6bffffffffffffffffffffffff1916603491909201908101919091526048019392505050565b634e487b7160e01b600052602160045260246000fdfea2646970667358221220b2103f3a653f150fc8824fefb378762b41eac5ba05fef692c5459c94aaeb050964736f6c634300081b0033","linkReferences":{}},"methodIdentifiers":{"execute(address,uint256,bytes,bytes)":"da0980c7","initialize(address,address)":"485cc955","mintNFT()":"14f710fe","nftContract()":"d56d229d","owner()":"8da5cb5b","withdraw()":"3ccfd60b"},"id":7}